{
  "_format": "hh-sol-artifact-1",
  "contractName": "NILTransparencyContract",
  "sourceName": "contracts/NILTransparencyContract.sol",
  "abi": [
    {
      "inputs": [],
      "stateMutability": "nonpayable",
      "type": "constructor"
    },
    {
      "inputs": [
        {
          "internalType": "address",
          "name": "",
          "type": "address"
        },
        {
          "internalType": "uint256",
          "name": "",
          "type": "uint256"
        }
      ],
      "name": "athleteContracts",
      "outputs": [
        {
          "internalType": "uint256",
          "name": "contractValue",
          "type": "uint256"
        },
        {
          "internalType": "bool",
          "name": "isPublic",
          "type": "bool"
        },
        {
          "internalType": "string",
          "name": "description",
          "type": "string"
        }
      ],
      "stateMutability": "view",
      "type": "function"
    },
    {
      "inputs": [
        {
          "internalType": "address",
          "name": "",
          "type": "address"
        },
        {
          "internalType": "uint256",
          "name": "",
          "type": "uint256"
        }
      ],
      "name": "athleteTransactions",
      "outputs": [
        {
          "internalType": "uint256",
          "name": "amount",
          "type": "uint256"
        },
        {
          "internalType": "string",
          "name": "purpose",
          "type": "string"
        },
        {
          "internalType": "address",
          "name": "fromAddress",
          "type": "address"
        },
        {
          "internalType": "bool",
          "name": "isPublic",
          "type": "bool"
        }
      ],
      "stateMutability": "view",
      "type": "function"
    },
    {
      "inputs": [
        {
          "internalType": "address",
          "name": "",
          "type": "address"
        }
      ],
      "name": "athletes",
      "outputs": [
        {
          "internalType": "address",
          "name": "walletAddress",
          "type": "address"
        },
        {
          "internalType": "bool",
          "name": "isVerified",
          "type": "bool"
        }
      ],
      "stateMutability": "view",
      "type": "function"
    },
    {
      "inputs": [],
      "name": "getAllAthletes",
      "outputs": [
        {
          "internalType": "address[]",
          "name": "",
          "type": "address[]"
        }
      ],
      "stateMutability": "view",
      "type": "function"
    },
    {
      "inputs": [
        {
          "internalType": "address",
          "name": "athleteAddr",
          "type": "address"
        }
      ],
      "name": "getAthlete",
      "outputs": [
        {
          "internalType": "address",
          "name": "wallet",
          "type": "address"
        },
        {
          "internalType": "bool",
          "name": "isVerified",
          "type": "bool"
        },
        {
          "internalType": "uint256",
          "name": "contractCount",
          "type": "uint256"
        },
        {
          "internalType": "uint256",
          "name": "transactionCount",
          "type": "uint256"
        }
      ],
      "stateMutability": "view",
      "type": "function"
    },
    {
      "inputs": [
        {
          "internalType": "address",
          "name": "athlete",
          "type": "address"
        }
      ],
      "name": "getAthleteTransactions",
      "outputs": [
        {
          "components": [
            {
              "internalType": "uint256",
              "name": "amount",
              "type": "uint256"
            },
            {
              "internalType": "string",
              "name": "purpose",
              "type": "string"
            },
            {
              "internalType": "address",
              "name": "fromAddress",
              "type": "address"
            },
            {
              "internalType": "bool",
              "name": "isPublic",
              "type": "bool"
            }
          ],
          "internalType": "struct NILTransparencyContract.Transaction[]",
          "name": "",
          "type": "tuple[]"
        }
      ],
      "stateMutability": "view",
      "type": "function"
    },
    {
      "inputs": [
        {
          "internalType": "uint256",
          "name": "amount",
          "type": "uint256"
        },
        {
          "internalType": "string",
          "name": "purpose",
          "type": "string"
        },
        {
          "internalType": "bool",
          "name": "isPublic",
          "type": "bool"
        }
      ],
      "name": "logTransaction",
      "outputs": [],
      "stateMutability": "nonpayable",
      "type": "function"
    },
    {
      "inputs": [],
      "name": "owner",
      "outputs": [
        {
          "internalType": "address",
          "name": "",
          "type": "address"
        }
      ],
      "stateMutability": "view",
      "type": "function"
    },
    {
      "inputs": [
        {
          "internalType": "address payable",
          "name": "athleteAddr",
          "type": "address"
        },
        {
          "internalType": "string",
          "name": "purpose",
          "type": "string"
        }
      ],
      "name": "payAthlete",
      "outputs": [],
      "stateMutability": "payable",
      "type": "function"
    },
    {
      "inputs": [],
      "name": "registerAthlete",
      "outputs": [],
      "stateMutability": "nonpayable",
      "type": "function"
    },
    {
      "inputs": [
        {
          "internalType": "uint256",
          "name": "",
          "type": "uint256"
        }
      ],
      "name": "registeredAthletes",
      "outputs": [
        {
          "internalType": "address",
          "name": "",
          "type": "address"
        }
      ],
      "stateMutability": "view",
      "type": "function"
    },
    {
      "inputs": [
        {
          "internalType": "uint256",
          "name": "value",
          "type": "uint256"
        },
        {
          "internalType": "string",
          "name": "description",
          "type": "string"
        },
        {
          "internalType": "bool",
          "name": "isPublic",
          "type": "bool"
        }
      ],
      "name": "submitNILContract",
      "outputs": [],
      "stateMutability": "nonpayable",
      "type": "function"
    },
    {
      "inputs": [
        {
          "internalType": "address",
          "name": "athleteAddr",
          "type": "address"
        }
      ],
      "name": "verifyAthlete",
      "outputs": [],
      "stateMutability": "nonpayable",
      "type": "function"
    },
    {
      "inputs": [
        {
          "internalType": "address",
          "name": "athlete",
          "type": "address"
        }
      ],
      "name": "viewAthleteContracts",
      "outputs": [
        {
          "components": [
            {
              "internalType": "uint256",
              "name": "contractValue",
              "type": "uint256"
            },
            {
              "internalType": "bool",
              "name": "isPublic",
              "type": "bool"
            },
            {
              "internalType": "string",
              "name": "description",
              "type": "string"
            }
          ],
          "internalType": "struct NILTransparencyContract.NILContract[]",
          "name": "",
          "type": "tuple[]"
        }
      ],
      "stateMutability": "view",
      "type": "function"
    }
  ],
  "bytecode": "0x608060405234801561001057600080fd5b50336000806101000a81548173ffffffffffffffffffffffffffffffffffffffff021916908373ffffffffffffffffffffffffffffffffffffffff160217905550612c89806100606000396000f3fe6080604052600436106100dd5760003560e01c80635f02f1751161007f578063930b189511610059578063930b1895146102b6578063c7bcc2e9146102f3578063cff98c5114610333578063ea13394414610371576100dd565b80635f02f175146102375780638b2b39fc146102605780638da5cb5b1461028b576100dd565b80633f24a842116100bb5780633f24a8421461019e5780634276e6d0146101b55780634c300f47146101f25780635b94ff3f1461021b576100dd565b80630534a6f5146100e2578063100849561461012157806316803ad01461015e575b600080fd5b3480156100ee57600080fd5b5061010960048036038101906101049190611e7c565b61039a565b60405161011893929190611f76565b60405180910390f35b34801561012d57600080fd5b5061014860048036038101906101439190611fb4565b610476565b604051610155919061217d565b60405180910390f35b34801561016a57600080fd5b5061018560048036038101906101809190611e7c565b610a74565b60405161019594939291906121ae565b60405180910390f35b3480156101aa57600080fd5b506101b3610b76565b005b3480156101c157600080fd5b506101dc60048036038101906101d79190611fb4565b610d83565b6040516101e9919061230c565b60405180910390f35b3480156101fe57600080fd5b506102196004803603810190610214919061248f565b6112d5565b005b6102356004803603810190610230919061253c565b611478565b005b34801561024357600080fd5b5061025e60048036038101906102599190611fb4565b611708565b005b34801561026c57600080fd5b506102756118c4565b6040516102829190612647565b60405180910390f35b34801561029757600080fd5b506102a0611952565b6040516102ad9190612669565b60405180910390f35b3480156102c257600080fd5b506102dd60048036038101906102d89190612684565b611976565b6040516102ea9190612669565b60405180910390f35b3480156102ff57600080fd5b5061031a60048036038101906103159190611fb4565b6119b5565b60405161032a94939291906126b1565b60405180910390f35b34801561033f57600080fd5b5061035a60048036038101906103559190611fb4565b611b1a565b6040516103689291906126f6565b60405180910390f35b34801561037d57600080fd5b506103986004803603810190610393919061248f565b611b6b565b005b600260205281600052604060002081815481106103b657600080fd5b9060005260206000209060030201600091509150508060000154908060010160009054906101000a900460ff16908060020180546103f39061274e565b80601f016020809104026020016040519081016040528092919081815260200182805461041f9061274e565b801561046c5780601f106104415761010080835404028352916020019161046c565b820191906000526020600020905b81548152906001019060200180831161044f57829003601f168201915b5050505050905083565b60608173ffffffffffffffffffffffffffffffffffffffff163373ffffffffffffffffffffffffffffffffffffffff1614806104fd575060008054906101000a900473ffffffffffffffffffffffffffffffffffffffff1673ffffffffffffffffffffffffffffffffffffffff163373ffffffffffffffffffffffffffffffffffffffff16145b156106ab57600360008373ffffffffffffffffffffffffffffffffffffffff1673ffffffffffffffffffffffffffffffffffffffff168152602001908152602001600020805480602002602001604051908101604052809291908181526020016000905b828210156106a057838290600052602060002090600302016040518060800160405290816000820154815260200160018201805461059e9061274e565b80601f01602080910402602001604051908101604052809291908181526020018280546105ca9061274e565b80156106175780601f106105ec57610100808354040283529160200191610617565b820191906000526020600020905b8154815290600101906020018083116105fa57829003601f168201915b505050505081526020016002820160009054906101000a900473ffffffffffffffffffffffffffffffffffffffff1673ffffffffffffffffffffffffffffffffffffffff1673ffffffffffffffffffffffffffffffffffffffff1681526020016002820160149054906101000a900460ff16151515158152505081526020019060010190610561565b505050509050610a6f565b600080600090505b600360008573ffffffffffffffffffffffffffffffffffffffff1673ffffffffffffffffffffffffffffffffffffffff1681526020019081526020016000208054905081101561079457600360008573ffffffffffffffffffffffffffffffffffffffff1673ffffffffffffffffffffffffffffffffffffffff168152602001908152602001600020818154811061074e5761074d61277f565b5b906000526020600020906003020160020160149054906101000a900460ff161561078157818061077d906127dd565b9250505b808061078c906127dd565b9150506106b3565b5060008167ffffffffffffffff8111156107b1576107b0612338565b5b6040519080825280602002602001820160405280156107ea57816020015b6107d7611d71565b8152602001906001900390816107cf5790505b5090506000805b600360008773ffffffffffffffffffffffffffffffffffffffff1673ffffffffffffffffffffffffffffffffffffffff16815260200190815260200160002080549050811015610a6757600360008773ffffffffffffffffffffffffffffffffffffffff1673ffffffffffffffffffffffffffffffffffffffff168152602001908152602001600020818154811061088c5761088b61277f565b5b906000526020600020906003020160020160149054906101000a900460ff1615610a5457600360008773ffffffffffffffffffffffffffffffffffffffff1673ffffffffffffffffffffffffffffffffffffffff16815260200190815260200160002081815481106109015761090061277f565b5b9060005260206000209060030201604051806080016040529081600082015481526020016001820180546109349061274e565b80601f01602080910402602001604051908101604052809291908181526020018280546109609061274e565b80156109ad5780601f10610982576101008083540402835291602001916109ad565b820191906000526020600020905b81548152906001019060200180831161099057829003601f168201915b505050505081526020016002820160009054906101000a900473ffffffffffffffffffffffffffffffffffffffff1673ffffffffffffffffffffffffffffffffffffffff1673ffffffffffffffffffffffffffffffffffffffff1681526020016002820160149054906101000a900460ff161515151581525050838381518110610a3a57610a3961277f565b5b60200260200101819052508180610a50906127dd565b9250505b8080610a5f906127dd565b9150506107f1565b508193505050505b919050565b60036020528160005260406000208181548110610a9057600080fd5b906000526020600020906003020160009150915050806000015490806001018054610aba9061274e565b80601f0160208091040260200160405190810160405280929190818152602001828054610ae69061274e565b8015610b335780601f10610b0857610100808354040283529160200191610b33565b820191906000526020600020905b815481529060010190602001808311610b1657829003601f168201915b5050505050908060020160009054906101000a900473ffffffffffffffffffffffffffffffffffffffff16908060020160149054906101000a900460ff16905084565b600073ffffffffffffffffffffffffffffffffffffffff16600160003373ffffffffffffffffffffffffffffffffffffffff1673ffffffffffffffffffffffffffffffffffffffff16815260200190815260200160002060000160009054906101000a900473ffffffffffffffffffffffffffffffffffffffff1673ffffffffffffffffffffffffffffffffffffffff1614610c47576040517f08c379a0000000000000000000000000000000000000000000000000000000008152600401610c3e90612871565b60405180910390fd5b60405180604001604052803373ffffffffffffffffffffffffffffffffffffffff16815260200160001515815250600160003373ffffffffffffffffffffffffffffffffffffffff1673ffffffffffffffffffffffffffffffffffffffff16815260200190815260200160002060008201518160000160006101000a81548173ffffffffffffffffffffffffffffffffffffffff021916908373ffffffffffffffffffffffffffffffffffffffff16021790555060208201518160000160146101000a81548160ff0219169083151502179055509050506004339080600181540180825580915050600190039060005260206000200160009091909190916101000a81548173ffffffffffffffffffffffffffffffffffffffff021916908373ffffffffffffffffffffffffffffffffffffffff160217905550565b60608173ffffffffffffffffffffffffffffffffffffffff163373ffffffffffffffffffffffffffffffffffffffff161480610e0a575060008054906101000a900473ffffffffffffffffffffffffffffffffffffffff1673ffffffffffffffffffffffffffffffffffffffff163373ffffffffffffffffffffffffffffffffffffffff16145b15610f6257600260008373ffffffffffffffffffffffffffffffffffffffff1673ffffffffffffffffffffffffffffffffffffffff168152602001908152602001600020805480602002602001604051908101604052809291908181526020016000905b82821015610f575783829060005260206000209060030201604051806060016040529081600082015481526020016001820160009054906101000a900460ff16151515158152602001600282018054610ec69061274e565b80601f0160208091040260200160405190810160405280929190818152602001828054610ef29061274e565b8015610f3f5780601f10610f1457610100808354040283529160200191610f3f565b820191906000526020600020905b815481529060010190602001808311610f2257829003601f168201915b50505050508152505081526020019060010190610e6e565b5050505090506112d0565b600080600090505b600260008573ffffffffffffffffffffffffffffffffffffffff1673ffffffffffffffffffffffffffffffffffffffff1681526020019081526020016000208054905081101561104b57600260008573ffffffffffffffffffffffffffffffffffffffff1673ffffffffffffffffffffffffffffffffffffffff16815260200190815260200160002081815481106110055761100461277f565b5b906000526020600020906003020160010160009054906101000a900460ff1615611038578180611034906127dd565b9250505b8080611043906127dd565b915050610f6a565b5060008167ffffffffffffffff81111561106857611067612338565b5b6040519080825280602002602001820160405280156110a157816020015b61108e611db1565b8152602001906001900390816110865790505b5090506000805b600260008773ffffffffffffffffffffffffffffffffffffffff1673ffffffffffffffffffffffffffffffffffffffff168152602001908152602001600020805490508110156112c857600260008773ffffffffffffffffffffffffffffffffffffffff1673ffffffffffffffffffffffffffffffffffffffff16815260200190815260200160002081815481106111435761114261277f565b5b906000526020600020906003020160010160009054906101000a900460ff16156112b557600260008773ffffffffffffffffffffffffffffffffffffffff1673ffffffffffffffffffffffffffffffffffffffff16815260200190815260200160002081815481106111b8576111b761277f565b5b9060005260206000209060030201604051806060016040529081600082015481526020016001820160009054906101000a900460ff161515151581526020016002820180546112069061274e565b80601f01602080910402602001604051908101604052809291908181526020018280546112329061274e565b801561127f5780601f106112545761010080835404028352916020019161127f565b820191906000526020600020905b81548152906001019060200180831161126257829003601f168201915b50505050508152505083838151811061129b5761129a61277f565b5b602002602001018190525081806112b1906127dd565b9250505b80806112c0906127dd565b9150506110a8565b508193505050505b919050565b600073ffffffffffffffffffffffffffffffffffffffff16600160003373ffffffffffffffffffffffffffffffffffffffff1673ffffffffffffffffffffffffffffffffffffffff16815260200190815260200160002060000160009054906101000a900473ffffffffffffffffffffffffffffffffffffffff1673ffffffffffffffffffffffffffffffffffffffff16036113a6576040517f08c379a000000000000000000000000000000000000000000000000000000000815260040161139d906128dd565b60405180910390fd5b600060405180606001604052808581526020018315158152602001848152509050600260003373ffffffffffffffffffffffffffffffffffffffff1673ffffffffffffffffffffffffffffffffffffffff1681526020019081526020016000208190806001815401808255809150506001900390600052602060002090600302016000909190919091506000820151816000015560208201518160010160006101000a81548160ff021916908315150217905550604082015181600201908161146f9190612aa9565b50505050505050565b600073ffffffffffffffffffffffffffffffffffffffff16600160008473ffffffffffffffffffffffffffffffffffffffff1673ffffffffffffffffffffffffffffffffffffffff16815260200190815260200160002060000160009054906101000a900473ffffffffffffffffffffffffffffffffffffffff1673ffffffffffffffffffffffffffffffffffffffff1603611549576040517f08c379a0000000000000000000000000000000000000000000000000000000008152600401611540906128dd565b60405180910390fd5b6000341161158c576040517f08c379a000000000000000000000000000000000000000000000000000000000815260040161158390612bc7565b60405180910390fd5b600060405180608001604052803481526020018381526020013373ffffffffffffffffffffffffffffffffffffffff168152602001600115158152509050600360008473ffffffffffffffffffffffffffffffffffffffff1673ffffffffffffffffffffffffffffffffffffffff1681526020019081526020016000208190806001815401808255809150506001900390600052602060002090600302016000909190919091506000820151816000015560208201518160010190816116529190612aa9565b5060408201518160020160006101000a81548173ffffffffffffffffffffffffffffffffffffffff021916908373ffffffffffffffffffffffffffffffffffffffff16021790555060608201518160020160146101000a81548160ff02191690831515021790555050508273ffffffffffffffffffffffffffffffffffffffff166108fc349081150290604051600060405180830381858888f19350505050158015611702573d6000803e3d6000fd5b50505050565b60008054906101000a900473ffffffffffffffffffffffffffffffffffffffff1673ffffffffffffffffffffffffffffffffffffffff163373ffffffffffffffffffffffffffffffffffffffff1614611796576040517f08c379a000000000000000000000000000000000000000000000000000000000815260040161178d90612c33565b60405180910390fd5b600073ffffffffffffffffffffffffffffffffffffffff16600160008373ffffffffffffffffffffffffffffffffffffffff1673ffffffffffffffffffffffffffffffffffffffff16815260200190815260200160002060000160009054906101000a900473ffffffffffffffffffffffffffffffffffffffff1673ffffffffffffffffffffffffffffffffffffffff1603611867576040517f08c379a000000000000000000000000000000000000000000000000000000000815260040161185e906128dd565b60405180910390fd5b60018060008373ffffffffffffffffffffffffffffffffffffffff1673ffffffffffffffffffffffffffffffffffffffff16815260200190815260200160002060000160146101000a81548160ff02191690831515021790555050565b6060600480548060200260200160405190810160405280929190818152602001828054801561194857602002820191906000526020600020905b8160009054906101000a900473ffffffffffffffffffffffffffffffffffffffff1673ffffffffffffffffffffffffffffffffffffffff16815260200190600101908083116118fe575b5050505050905090565b60008054906101000a900473ffffffffffffffffffffffffffffffffffffffff1681565b6004818154811061198657600080fd5b906000526020600020016000915054906101000a900473ffffffffffffffffffffffffffffffffffffffff1681565b6000806000806000600160008773ffffffffffffffffffffffffffffffffffffffff1673ffffffffffffffffffffffffffffffffffffffff1681526020019081526020016000206040518060400160405290816000820160009054906101000a900473ffffffffffffffffffffffffffffffffffffffff1673ffffffffffffffffffffffffffffffffffffffff1673ffffffffffffffffffffffffffffffffffffffff1681526020016000820160149054906101000a900460ff161515151581525050905080600001518160200151600260008973ffffffffffffffffffffffffffffffffffffffff1673ffffffffffffffffffffffffffffffffffffffff16815260200190815260200160002080549050600360008a73ffffffffffffffffffffffffffffffffffffffff1673ffffffffffffffffffffffffffffffffffffffff168152602001908152602001600020805490509450945094509450509193509193565b60016020528060005260406000206000915090508060000160009054906101000a900473ffffffffffffffffffffffffffffffffffffffff16908060000160149054906101000a900460ff16905082565b600073ffffffffffffffffffffffffffffffffffffffff16600160003373ffffffffffffffffffffffffffffffffffffffff1673ffffffffffffffffffffffffffffffffffffffff16815260200190815260200160002060000160009054906101000a900473ffffffffffffffffffffffffffffffffffffffff1673ffffffffffffffffffffffffffffffffffffffff1603611c3c576040517f08c379a0000000000000000000000000000000000000000000000000000000008152600401611c33906128dd565b60405180910390fd5b600060405180608001604052808581526020018481526020013373ffffffffffffffffffffffffffffffffffffffff1681526020018315158152509050600360003373ffffffffffffffffffffffffffffffffffffffff1673ffffffffffffffffffffffffffffffffffffffff168152602001908152602001600020819080600181540180825580915050600190039060005260206000209060030201600090919091909150600082015181600001556020820151816001019081611d019190612aa9565b5060408201518160020160006101000a81548173ffffffffffffffffffffffffffffffffffffffff021916908373ffffffffffffffffffffffffffffffffffffffff16021790555060608201518160020160146101000a81548160ff021916908315150217905550505050505050565b60405180608001604052806000815260200160608152602001600073ffffffffffffffffffffffffffffffffffffffff1681526020016000151581525090565b604051806060016040528060008152602001600015158152602001606081525090565b6000604051905090565b600080fd5b600080fd5b600073ffffffffffffffffffffffffffffffffffffffff82169050919050565b6000611e1382611de8565b9050919050565b611e2381611e08565b8114611e2e57600080fd5b50565b600081359050611e4081611e1a565b92915050565b6000819050919050565b611e5981611e46565b8114611e6457600080fd5b50565b600081359050611e7681611e50565b92915050565b60008060408385031215611e9357611e92611dde565b5b6000611ea185828601611e31565b9250506020611eb285828601611e67565b9150509250929050565b611ec581611e46565b82525050565b60008115159050919050565b611ee081611ecb565b82525050565b600081519050919050565b600082825260208201905092915050565b60005b83811015611f20578082015181840152602081019050611f05565b60008484015250505050565b6000601f19601f8301169050919050565b6000611f4882611ee6565b611f528185611ef1565b9350611f62818560208601611f02565b611f6b81611f2c565b840191505092915050565b6000606082019050611f8b6000830186611ebc565b611f986020830185611ed7565b8181036040830152611faa8184611f3d565b9050949350505050565b600060208284031215611fca57611fc9611dde565b5b6000611fd884828501611e31565b91505092915050565b600081519050919050565b600082825260208201905092915050565b6000819050602082019050919050565b61201681611e46565b82525050565b600082825260208201905092915050565b600061203882611ee6565b612042818561201c565b9350612052818560208601611f02565b61205b81611f2c565b840191505092915050565b61206f81611e08565b82525050565b61207e81611ecb565b82525050565b600060808301600083015161209c600086018261200d565b50602083015184820360208601526120b4828261202d565b91505060408301516120c96040860182612066565b5060608301516120dc6060860182612075565b508091505092915050565b60006120f38383612084565b905092915050565b6000602082019050919050565b600061211382611fe1565b61211d8185611fec565b93508360208202850161212f85611ffd565b8060005b8581101561216b578484038952815161214c85826120e7565b9450612157836120fb565b925060208a01995050600181019050612133565b50829750879550505050505092915050565b600060208201905081810360008301526121978184612108565b905092915050565b6121a881611e08565b82525050565b60006080820190506121c36000830187611ebc565b81810360208301526121d58186611f3d565b90506121e4604083018561219f565b6121f16060830184611ed7565b95945050505050565b600081519050919050565b600082825260208201905092915050565b6000819050602082019050919050565b600060608301600083015161223e600086018261200d565b5060208301516122516020860182612075565b5060408301518482036040860152612269828261202d565b9150508091505092915050565b60006122828383612226565b905092915050565b6000602082019050919050565b60006122a2826121fa565b6122ac8185612205565b9350836020820285016122be85612216565b8060005b858110156122fa57848403895281516122db8582612276565b94506122e68361228a565b925060208a019950506001810190506122c2565b50829750879550505050505092915050565b600060208201905081810360008301526123268184612297565b905092915050565b600080fd5b600080fd5b7f4e487b7100000000000000000000000000000000000000000000000000000000600052604160045260246000fd5b61237082611f2c565b810181811067ffffffffffffffff8211171561238f5761238e612338565b5b80604052505050565b60006123a2611dd4565b90506123ae8282612367565b919050565b600067ffffffffffffffff8211156123ce576123cd612338565b5b6123d782611f2c565b9050602081019050919050565b82818337600083830152505050565b6000612406612401846123b3565b612398565b90508281526020810184848401111561242257612421612333565b5b61242d8482856123e4565b509392505050565b600082601f83011261244a5761244961232e565b5b813561245a8482602086016123f3565b91505092915050565b61246c81611ecb565b811461247757600080fd5b50565b60008135905061248981612463565b92915050565b6000806000606084860312156124a8576124a7611dde565b5b60006124b686828701611e67565b935050602084013567ffffffffffffffff8111156124d7576124d6611de3565b5b6124e386828701612435565b92505060406124f48682870161247a565b9150509250925092565b600061250982611de8565b9050919050565b612519816124fe565b811461252457600080fd5b50565b60008135905061253681612510565b92915050565b6000806040838503121561255357612552611dde565b5b600061256185828601612527565b925050602083013567ffffffffffffffff81111561258257612581611de3565b5b61258e85828601612435565b9150509250929050565b600081519050919050565b600082825260208201905092915050565b6000819050602082019050919050565b60006125d08383612066565b60208301905092915050565b6000602082019050919050565b60006125f482612598565b6125fe81856125a3565b9350612609836125b4565b8060005b8381101561263a57815161262188826125c4565b975061262c836125dc565b92505060018101905061260d565b5085935050505092915050565b6000602082019050818103600083015261266181846125e9565b905092915050565b600060208201905061267e600083018461219f565b92915050565b60006020828403121561269a57612699611dde565b5b60006126a884828501611e67565b91505092915050565b60006080820190506126c6600083018761219f565b6126d36020830186611ed7565b6126e06040830185611ebc565b6126ed6060830184611ebc565b95945050505050565b600060408201905061270b600083018561219f565b6127186020830184611ed7565b9392505050565b7f4e487b7100000000000000000000000000000000000000000000000000000000600052602260045260246000fd5b6000600282049050600182168061276657607f821691505b6020821081036127795761277861271f565b5b50919050565b7f4e487b7100000000000000000000000000000000000000000000000000000000600052603260045260246000fd5b7f4e487b7100000000000000000000000000000000000000000000000000000000600052601160045260246000fd5b60006127e882611e46565b91507fffffffffffffffffffffffffffffffffffffffffffffffffffffffffffffffff820361281a576128196127ae565b5b600182019050919050565b7f416c726561647920726567697374657265640000000000000000000000000000600082015250565b600061285b601283611ef1565b915061286682612825565b602082019050919050565b6000602082019050818103600083015261288a8161284e565b9050919050565b7f4174686c657465206e6f74207265676973746572656400000000000000000000600082015250565b60006128c7601683611ef1565b91506128d282612891565b602082019050919050565b600060208201905081810360008301526128f6816128ba565b9050919050565b60008190508160005260206000209050919050565b60006020601f8301049050919050565b600082821b905092915050565b60006008830261295f7fffffffffffffffffffffffffffffffffffffffffffffffffffffffffffffffff82612922565b6129698683612922565b95508019841693508086168417925050509392505050565b6000819050919050565b60006129a66129a161299c84611e46565b612981565b611e46565b9050919050565b6000819050919050565b6129c08361298b565b6129d46129cc826129ad565b84845461292f565b825550505050565b600090565b6129e96129dc565b6129f48184846129b7565b505050565b5b81811015612a1857612a0d6000826129e1565b6001810190506129fa565b5050565b601f821115612a5d57612a2e816128fd565b612a3784612912565b81016020851015612a46578190505b612a5a612a5285612912565b8301826129f9565b50505b505050565b600082821c905092915050565b6000612a8060001984600802612a62565b1980831691505092915050565b6000612a998383612a6f565b9150826002028217905092915050565b612ab282611ee6565b67ffffffffffffffff811115612acb57612aca612338565b5b612ad5825461274e565b612ae0828285612a1c565b600060209050601f831160018114612b135760008415612b01578287015190505b612b0b8582612a8d565b865550612b73565b601f198416612b21866128fd565b60005b82811015612b4957848901518255600182019150602085019450602081019050612b24565b86831015612b665784890151612b62601f891682612a6f565b8355505b6001600288020188555050505b505050505050565b7f5061796d656e74206d7573742062652067726561746572207468616e20300000600082015250565b6000612bb1601e83611ef1565b9150612bbc82612b7b565b602082019050919050565b60006020820190508181036000830152612be081612ba4565b9050919050565b7f4f6e6c79206f776e65722063616e207665726966790000000000000000000000600082015250565b6000612c1d601583611ef1565b9150612c2882612be7565b602082019050919050565b60006020820190508181036000830152612c4c81612c10565b905091905056fea2646970667358221220a82cd35b1cd7dcd661dfa2b09e102c4709f976cf9b4ba358943d209b81dd0dac64736f6c63430008120033",
  "linkReferences": {},
  "deployedLinkReferences": {}
}